{
  "contractName": "FomoInvest",
  "abi": [
    {
      "constant": true,
      "inputs": [],
      "name": "totalAmount",
      "outputs": [
        {
          "name": "",
          "type": "uint256"
        }
      ],
      "payable": false,
      "stateMutability": "view",
      "type": "function"
    },
    {
      "constant": true,
      "inputs": [],
      "name": "capIncrease",
      "outputs": [
        {
          "name": "",
          "type": "uint256"
        }
      ],
      "payable": false,
      "stateMutability": "view",
      "type": "function"
    },
    {
      "constant": true,
      "inputs": [
        {
          "name": "",
          "type": "address"
        }
      ],
      "name": "reDepositRound",
      "outputs": [
        {
          "name": "",
          "type": "uint256"
        }
      ],
      "payable": false,
      "stateMutability": "view",
      "type": "function"
    },
    {
      "constant": true,
      "inputs": [
        {
          "name": "",
          "type": "uint256"
        }
      ],
      "name": "roundInfo",
      "outputs": [
        {
          "name": "startTime",
          "type": "uint256"
        },
        {
          "name": "endTime",
          "type": "uint256"
        },
        {
          "name": "capInUsdtWei",
          "type": "uint256"
        },
        {
          "name": "investAmountInUsdtWei",
          "type": "uint256"
        },
        {
          "name": "index",
          "type": "uint256"
        }
      ],
      "payable": false,
      "stateMutability": "view",
      "type": "function"
    },
    {
      "constant": true,
      "inputs": [],
      "name": "roundIndex",
      "outputs": [
        {
          "name": "",
          "type": "uint256"
        }
      ],
      "payable": false,
      "stateMutability": "view",
      "type": "function"
    },
    {
      "constant": true,
      "inputs": [],
      "name": "defaultCap",
      "outputs": [
        {
          "name": "",
          "type": "uint256"
        }
      ],
      "payable": false,
      "stateMutability": "view",
      "type": "function"
    },
    {
      "constant": false,
      "inputs": [],
      "name": "renounceOwnership",
      "outputs": [],
      "payable": false,
      "stateMutability": "nonpayable",
      "type": "function"
    },
    {
      "constant": true,
      "inputs": [
        {
          "name": "",
          "type": "uint256"
        },
        {
          "name": "",
          "type": "uint256"
        }
      ],
      "name": "reDepositUsers",
      "outputs": [
        {
          "name": "",
          "type": "address"
        }
      ],
      "payable": false,
      "stateMutability": "view",
      "type": "function"
    },
    {
      "constant": true,
      "inputs": [
        {
          "name": "",
          "type": "address"
        },
        {
          "name": "",
          "type": "uint256"
        }
      ],
      "name": "investRecords",
      "outputs": [
        {
          "name": "",
          "type": "uint256"
        }
      ],
      "payable": false,
      "stateMutability": "view",
      "type": "function"
    },
    {
      "constant": true,
      "inputs": [],
      "name": "interestRate",
      "outputs": [
        {
          "name": "",
          "type": "uint256"
        }
      ],
      "payable": false,
      "stateMutability": "view",
      "type": "function"
    },
    {
      "constant": true,
      "inputs": [],
      "name": "roundInterval",
      "outputs": [
        {
          "name": "",
          "type": "uint256"
        }
      ],
      "payable": false,
      "stateMutability": "view",
      "type": "function"
    },
    {
      "constant": true,
      "inputs": [],
      "name": "refundRate",
      "outputs": [
        {
          "name": "",
          "type": "uint256"
        }
      ],
      "payable": false,
      "stateMutability": "view",
      "type": "function"
    },
    {
      "constant": true,
      "inputs": [],
      "name": "owner",
      "outputs": [
        {
          "name": "",
          "type": "address"
        }
      ],
      "payable": false,
      "stateMutability": "view",
      "type": "function"
    },
    {
      "constant": true,
      "inputs": [],
      "name": "isOwner",
      "outputs": [
        {
          "name": "",
          "type": "bool"
        }
      ],
      "payable": false,
      "stateMutability": "view",
      "type": "function"
    },
    {
      "constant": true,
      "inputs": [],
      "name": "usdtToken",
      "outputs": [
        {
          "name": "",
          "type": "address"
        }
      ],
      "payable": false,
      "stateMutability": "view",
      "type": "function"
    },
    {
      "constant": true,
      "inputs": [],
      "name": "state",
      "outputs": [
        {
          "name": "",
          "type": "uint8"
        }
      ],
      "payable": false,
      "stateMutability": "view",
      "type": "function"
    },
    {
      "constant": true,
      "inputs": [
        {
          "name": "",
          "type": "address"
        }
      ],
      "name": "waitingQueue",
      "outputs": [
        {
          "name": "",
          "type": "uint256"
        }
      ],
      "payable": false,
      "stateMutability": "view",
      "type": "function"
    },
    {
      "constant": true,
      "inputs": [
        {
          "name": "",
          "type": "uint256"
        },
        {
          "name": "",
          "type": "uint256"
        }
      ],
      "name": "waitingUsers",
      "outputs": [
        {
          "name": "",
          "type": "address"
        }
      ],
      "payable": false,
      "stateMutability": "view",
      "type": "function"
    },
    {
      "constant": true,
      "inputs": [],
      "name": "withdrawFee",
      "outputs": [
        {
          "name": "",
          "type": "uint256"
        }
      ],
      "payable": false,
      "stateMutability": "view",
      "type": "function"
    },
    {
      "constant": false,
      "inputs": [
        {
          "name": "newOwner",
          "type": "address"
        }
      ],
      "name": "transferOwnership",
      "outputs": [],
      "payable": false,
      "stateMutability": "nonpayable",
      "type": "function"
    },
    {
      "inputs": [
        {
          "name": "tetherToken",
          "type": "address"
        }
      ],
      "payable": false,
      "stateMutability": "nonpayable",
      "type": "constructor"
    },
    {
      "anonymous": false,
      "inputs": [
        {
          "indexed": false,
          "name": "from",
          "type": "uint8"
        },
        {
          "indexed": false,
          "name": "to",
          "type": "uint8"
        }
      ],
      "name": "StateChanged",
      "type": "event"
    },
    {
      "anonymous": false,
      "inputs": [
        {
          "indexed": false,
          "name": "sender",
          "type": "address"
        },
        {
          "indexed": false,
          "name": "amount",
          "type": "uint256"
        }
      ],
      "name": "Received",
      "type": "event"
    },
    {
      "anonymous": false,
      "inputs": [
        {
          "indexed": false,
          "name": "investor",
          "type": "address"
        },
        {
          "indexed": false,
          "name": "amount",
          "type": "uint256"
        },
        {
          "indexed": false,
          "name": "roundIndex",
          "type": "uint256"
        }
      ],
      "name": "Invested",
      "type": "event"
    },
    {
      "anonymous": false,
      "inputs": [
        {
          "indexed": false,
          "name": "size",
          "type": "uint256"
        },
        {
          "indexed": false,
          "name": "amount",
          "type": "uint256"
        }
      ],
      "name": "RefundDone",
      "type": "event"
    },
    {
      "anonymous": false,
      "inputs": [
        {
          "indexed": false,
          "name": "size",
          "type": "uint256"
        },
        {
          "indexed": false,
          "name": "amount",
          "type": "uint256"
        }
      ],
      "name": "WithdrawDone",
      "type": "event"
    },
    {
      "anonymous": false,
      "inputs": [
        {
          "indexed": false,
          "name": "investor",
          "type": "address"
        },
        {
          "indexed": false,
          "name": "roundIndex",
          "type": "uint256"
        }
      ],
      "name": "MarkReInvested",
      "type": "event"
    },
    {
      "anonymous": false,
      "inputs": [
        {
          "indexed": false,
          "name": "investor",
          "type": "address"
        },
        {
          "indexed": false,
          "name": "roundIndex",
          "type": "uint256"
        },
        {
          "indexed": false,
          "name": "amount",
          "type": "uint256"
        }
      ],
      "name": "ReInvested",
      "type": "event"
    },
    {
      "anonymous": false,
      "inputs": [
        {
          "indexed": false,
          "name": "size",
          "type": "uint256"
        }
      ],
      "name": "ReInvestDone",
      "type": "event"
    },
    {
      "anonymous": false,
      "inputs": [
        {
          "indexed": false,
          "name": "size",
          "type": "uint256"
        }
      ],
      "name": "WaitingQueueDone",
      "type": "event"
    },
    {
      "anonymous": false,
      "inputs": [
        {
          "indexed": true,
          "name": "previousOwner",
          "type": "address"
        },
        {
          "indexed": true,
          "name": "newOwner",
          "type": "address"
        }
      ],
      "name": "OwnershipTransferred",
      "type": "event"
    },
    {
      "constant": false,
      "inputs": [],
      "name": "start",
      "outputs": [],
      "payable": false,
      "stateMutability": "nonpayable",
      "type": "function"
    },
    {
      "constant": false,
      "inputs": [
        {
          "name": "usdtWeiAmount",
          "type": "uint256"
        }
      ],
      "name": "deposit",
      "outputs": [],
      "payable": false,
      "stateMutability": "nonpayable",
      "type": "function"
    },
    {
      "constant": false,
      "inputs": [
        {
          "name": "investor",
          "type": "address"
        },
        {
          "name": "usdtWeiAmount",
          "type": "uint256"
        }
      ],
      "name": "adminDeposit",
      "outputs": [],
      "payable": false,
      "stateMutability": "nonpayable",
      "type": "function"
    },
    {
      "constant": false,
      "inputs": [
        {
          "name": "investors",
          "type": "address[]"
        }
      ],
      "name": "batchRefund",
      "outputs": [],
      "payable": false,
      "stateMutability": "nonpayable",
      "type": "function"
    },
    {
      "constant": false,
      "inputs": [
        {
          "name": "investors",
          "type": "address[]"
        }
      ],
      "name": "batchWithdraw",
      "outputs": [],
      "payable": false,
      "stateMutability": "nonpayable",
      "type": "function"
    },
    {
      "constant": false,
      "inputs": [],
      "name": "reDeposit",
      "outputs": [],
      "payable": false,
      "stateMutability": "nonpayable",
      "type": "function"
    },
    {
      "constant": false,
      "inputs": [
        {
          "name": "investors",
          "type": "address[]"
        }
      ],
      "name": "adminReDeposit",
      "outputs": [],
      "payable": false,
      "stateMutability": "nonpayable",
      "type": "function"
    },
    {
      "constant": false,
      "inputs": [
        {
          "name": "investors",
          "type": "address[]"
        }
      ],
      "name": "adminDepositForWaitingUsers",
      "outputs": [],
      "payable": false,
      "stateMutability": "nonpayable",
      "type": "function"
    },
    {
      "constant": false,
      "inputs": [],
      "name": "adminStateCheck",
      "outputs": [],
      "payable": false,
      "stateMutability": "nonpayable",
      "type": "function"
    },
    {
      "constant": false,
      "inputs": [],
      "name": "adminClose",
      "outputs": [],
      "payable": false,
      "stateMutability": "nonpayable",
      "type": "function"
    },
    {
      "constant": true,
      "inputs": [],
      "name": "getWaitingUsers",
      "outputs": [
        {
          "name": "",
          "type": "address[]"
        }
      ],
      "payable": false,
      "stateMutability": "view",
      "type": "function"
    },
    {
      "constant": true,
      "inputs": [],
      "name": "getReDepositUsers",
      "outputs": [
        {
          "name": "",
          "type": "address[]"
        }
      ],
      "payable": false,
      "stateMutability": "view",
      "type": "function"
    },
    {
      "constant": false,
      "inputs": [],
      "name": "kill",
      "outputs": [],
      "payable": false,
      "stateMutability": "nonpayable",
      "type": "function"
    }
  ],
  "bytecode": "0x608060405262093a806002556402540be400600355601e600455600e60055560026006556041600755600060095534801561003957600080fd5b50604051602080620039d88339810180604052602081101561005a57600080fd5b8101908080519060200190929190505050336000806101000a81548173ffffffffffffffffffffffffffffffffffffffff021916908373ffffffffffffffffffffffffffffffffffffffff1602179055506000809054906101000a900473ffffffffffffffffffffffffffffffffffffffff1673ffffffffffffffffffffffffffffffffffffffff16600073ffffffffffffffffffffffffffffffffffffffff167f8be0079c531659141344cd1fd0a4f28419497f9722a3daafe3b4186f6b6457e060405160405180910390a380600160006101000a81548173ffffffffffffffffffffffffffffffffffffffff021916908373ffffffffffffffffffffffffffffffffffffffff1602179055506000601060006101000a81548160ff0219169083600381111561018757fe5b02179055505061383b806200019d6000396000f3fe608060405234801561001057600080fd5b50600436106101fb5760003560e01c80637c6e9fa11161011a578063b6b55f25116100ad578063dfcd10991161007c578063dfcd109914610882578063e941fa78146108fa578063f2cdc5fd14610918578063f2fde38b146109d0578063fff9600514610a14576101fb565b8063b6b55f25146107c6578063be9a6555146107f4578063c19d93fb146107fe578063dcc508ed1461082a576101fb565b80638da5cb5b116100e95780638da5cb5b146107065780638f32d59b14610750578063a649928614610772578063a98ad46c1461077c576101fb565b80637c6e9fa11461066157806382f8b6e91461066b578063831cb8e81461068957806387c82613146106a7576101fb565b80635323ed3811610192578063715018a611610161578063715018a61461055f5780637179bb571461056957806372b8ffd7146105e15780637c3a00fd14610643576101fb565b80635323ed38146104cb57806361b2d42d14610519578063648036ae14610523578063689df56e14610541576101fb565b8063327d5a80116101ce578063327d5a801461034c57806341c0e1b5146103ab578063427f0b00146103b5578063431cc3dd14610413576101fb565b8063180b018c146102005780631a39d8ef146102b85780631c23f8c0146102d65780633108cf79146102f4575b600080fd5b6102b66004803603602081101561021657600080fd5b810190808035906020019064010000000081111561023357600080fd5b82018360208201111561024557600080fd5b8035906020019184602083028401116401000000008311171561026757600080fd5b919080806020026020016040519081016040528093929190818152602001838360200280828437600081840152601f19601f820116905080830192505050505050509192919290505050610acc565b005b6102c0610f24565b6040518082815260200191505060405180910390f35b6102de610f2a565b6040518082815260200191505060405180910390f35b6103366004803603602081101561030a57600080fd5b81019080803573ffffffffffffffffffffffffffffffffffffffff169060200190929190505050610f30565b6040518082815260200191505060405180910390f35b610354610f48565b6040518080602001828103825283818151815260200191508051906020019060200280838360005b8381101561039757808201518184015260208101905061037c565b505050509050019250505060405180910390f35b6103b3610fe9565b005b6103e1600480360360208110156103cb57600080fd5b81019080803590602001909291905050506110ad565b604051808681526020018581526020018481526020018381526020018281526020019550505050505060405180910390f35b6104c96004803603602081101561042957600080fd5b810190808035906020019064010000000081111561044657600080fd5b82018360208201111561045857600080fd5b8035906020019184602083028401116401000000008311171561047a57600080fd5b919080806020026020016040519081016040528093929190818152602001838360200280828437600081840152601f19601f8201169050808301925050505050505091929192905050506110e3565b005b610517600480360360408110156104e157600080fd5b81019080803573ffffffffffffffffffffffffffffffffffffffff16906020019092919080359060200190929190505050611483565b005b61052161153d565b005b61052b611827565b6040518082815260200191505060405180910390f35b61054961182d565b6040518082815260200191505060405180910390f35b610567611833565b005b61059f6004803603604081101561057f57600080fd5b81019080803590602001909291908035906020019092919050505061196c565b604051808273ffffffffffffffffffffffffffffffffffffffff1673ffffffffffffffffffffffffffffffffffffffff16815260200191505060405180910390f35b61062d600480360360408110156105f757600080fd5b81019080803573ffffffffffffffffffffffffffffffffffffffff169060200190929190803590602001909291905050506119b7565b6040518082815260200191505060405180910390f35b61064b6119dc565b6040518082815260200191505060405180910390f35b6106696119e2565b005b610673611bbd565b6040518082815260200191505060405180910390f35b610691611bc3565b6040518082815260200191505060405180910390f35b6106af611bc9565b6040518080602001828103825283818151815260200191508051906020019060200280838360005b838110156106f25780820151818401526020810190506106d7565b505050509050019250505060405180910390f35b61070e611c6a565b604051808273ffffffffffffffffffffffffffffffffffffffff1673ffffffffffffffffffffffffffffffffffffffff16815260200191505060405180910390f35b610758611c93565b604051808215151515815260200191505060405180910390f35b61077a611cea565b005b610784611e80565b604051808273ffffffffffffffffffffffffffffffffffffffff1673ffffffffffffffffffffffffffffffffffffffff16815260200191505060405180910390f35b6107f2600480360360208110156107dc57600080fd5b8101908080359060200190929190505050611ea6565b005b6107fc6120f4565b005b6108066122af565b6040518082600381111561081657fe5b60ff16815260200191505060405180910390f35b61086c6004803603602081101561084057600080fd5b81019080803573ffffffffffffffffffffffffffffffffffffffff1690602001909291905050506122c2565b6040518082815260200191505060405180910390f35b6108b86004803603604081101561089857600080fd5b8101908080359060200190929190803590602001909291905050506122da565b604051808273ffffffffffffffffffffffffffffffffffffffff1673ffffffffffffffffffffffffffffffffffffffff16815260200191505060405180910390f35b610902612325565b6040518082815260200191505060405180910390f35b6109ce6004803603602081101561092e57600080fd5b810190808035906020019064010000000081111561094b57600080fd5b82018360208201111561095d57600080fd5b8035906020019184602083028401116401000000008311171561097f57600080fd5b919080806020026020016040519081016040528093929190818152602001838360200280828437600081840152601f19601f82011690508083019250505050505050919291929050505061232b565b005b610a12600480360360208110156109e657600080fd5b81019080803573ffffffffffffffffffffffffffffffffffffffff169060200190929190505050612512565b005b610aca60048036036020811015610a2a57600080fd5b8101908080359060200190640100000000811115610a4757600080fd5b820183602082011115610a5957600080fd5b80359060200191846020830284011164010000000083111715610a7b57600080fd5b919080806020026020016040519081016040528093929190818152602001838360200280828437600081840152601f19601f820116905080830192505050505050509192919290505050612598565b005b610ad4611c93565b610b46576040517f08c379a00000000000000000000000000000000000000000000000000000000081526004018080602001828103825260208152602001807f4f776e61626c653a2063616c6c6572206973206e6f7420746865206f776e657281525060200191505060405180910390fd5b60016003811115610b5357fe5b601060009054906101000a900460ff166003811115610b6e57fe5b14610b7857600080fd5b60046009541015610b8857600080fd5b6000600f600060095481526020019081526020016000208054905011610bad57600080fd5b60008090505b8151811015610ee8576000828281518110610bca57fe5b602002602001015190506000600e60008373ffffffffffffffffffffffffffffffffffffffff1673ffffffffffffffffffffffffffffffffffffffff168152602001908152602001600020541415610c225750610edb565b6000600a60008373ffffffffffffffffffffffffffffffffffffffff1673ffffffffffffffffffffffffffffffffffffffff168152602001908152602001600020600060036009540381526020019081526020016000205490506000610ca66064610c9860055485612b2190919063ffffffff16565b612ba790919063ffffffff16565b90506000610cbd8284612c3690919063ffffffff16565b90506000600e60008673ffffffffffffffffffffffffffffffffffffffff1673ffffffffffffffffffffffffffffffffffffffff16815260200190815260200160002081905550610d6981600a60008773ffffffffffffffffffffffffffffffffffffffff1673ffffffffffffffffffffffffffffffffffffffff1681526020019081526020016000206000600954815260200190815260200160002054612c3690919063ffffffff16565b600a60008673ffffffffffffffffffffffffffffffffffffffff1673ffffffffffffffffffffffffffffffffffffffff1681526020019081526020016000206000600954815260200190815260200160002081905550610dea81600b6000600954815260200190815260200160002060030154612c3690919063ffffffff16565b600b60006009548152602001908152602001600020600301819055506000600a60008673ffffffffffffffffffffffffffffffffffffffff1673ffffffffffffffffffffffffffffffffffffffff16815260200190815260200160002060006003600954038152602001908152602001600020819055507f508e014b98be2f3ce3054097a35d7f2ff1e3bfc5430b102a5caf9202b89e720a8460095483604051808473ffffffffffffffffffffffffffffffffffffffff1673ffffffffffffffffffffffffffffffffffffffff168152602001838152602001828152602001935050505060405180910390a1505050505b8080600101915050610bb3565b507fb7624a7721fa1beefece949edd04057a2d754ab35425c9a892e454446745b10781516040518082815260200191505060405180910390a150565b60085481565b60045481565b600e6020528060005260406000206000915090505481565b6060600d60006009548152602001908152602001600020805480602002602001604051908101604052809291908181526020018280548015610fdf57602002820191906000526020600020905b8160009054906101000a900473ffffffffffffffffffffffffffffffffffffffff1673ffffffffffffffffffffffffffffffffffffffff1681526020019060010190808311610f95575b5050505050905090565b610ff1611c93565b611063576040517f08c379a00000000000000000000000000000000000000000000000000000000081526004018080602001828103825260208152602001807f4f776e61626c653a2063616c6c6572206973206e6f7420746865206f776e657281525060200191505060405180910390fd5b60038081111561106f57fe5b601060009054906101000a900460ff16600381111561108a57fe5b1461109457600080fd5b3373ffffffffffffffffffffffffffffffffffffffff16ff5b600b6020528060005260406000206000915090508060000154908060010154908060020154908060030154908060040154905085565b6110eb611c93565b61115d576040517f08c379a00000000000000000000000000000000000000000000000000000000081526004018080602001828103825260208152602001807f4f776e61626c653a2063616c6c6572206973206e6f7420746865206f776e657281525060200191505060405180910390fd5b6001600381111561116a57fe5b601060009054906101000a900460ff16600381111561118557fe5b1461118f57600080fd5b6004600954101561119f57600080fd5b600080600090505b825181101561143e5760008382815181106111be57fe5b602002602001015190506000600a60008685815181106111da57fe5b602002602001015173ffffffffffffffffffffffffffffffffffffffff1673ffffffffffffffffffffffffffffffffffffffff168152602001908152602001600020600060036009540381526020019081526020016000205490506000811415611245575050611431565b600061126f606461126160055485612b2190919063ffffffff16565b612ba790919063ffffffff16565b905060006112868284612c3690919063ffffffff16565b905060006112b260646112a460065485612b2190919063ffffffff16565b612ba790919063ffffffff16565b905060006112c98284612cbe90919063ffffffff16565b90506112e081600854612cbe90919063ffffffff16565b6008819055506000600a60008b8a815181106112f857fe5b602002602001015173ffffffffffffffffffffffffffffffffffffffff1673ffffffffffffffffffffffffffffffffffffffff1681526020019081526020016000206000600360095403815260200190815260200160002081905550600160009054906101000a900473ffffffffffffffffffffffffffffffffffffffff1673ffffffffffffffffffffffffffffffffffffffff1663a9059cbb87836040518363ffffffff1660e01b8152600401808373ffffffffffffffffffffffffffffffffffffffff1673ffffffffffffffffffffffffffffffffffffffff16815260200182815260200192505050600060405180830381600087803b1580156113fd57600080fd5b505af1158015611411573d6000803e3d6000fd5b505050506114288189612c3690919063ffffffff16565b97505050505050505b80806001019150506111a7565b507f6b7cc9526deb2e5cce4c3420cca973fc862e8d402a6ea059a0cc1a0b29a74fce825182604051808381526020018281526020019250505060405180910390a15050565b61148b611c93565b6114fd576040517f08c379a00000000000000000000000000000000000000000000000000000000081526004018080602001828103825260208152602001807f4f776e61626c653a2063616c6c6572206973206e6f7420746865206f776e657281525060200191505060405180910390fd5b6001600381111561150a57fe5b601060009054906101000a900460ff16600381111561152557fe5b1461152f57600080fd5b6115398282612d47565b5050565b611545611c93565b6115b7576040517f08c379a00000000000000000000000000000000000000000000000000000000081526004018080602001828103825260208152602001807f4f776e61626c653a2063616c6c6572206973206e6f7420746865206f776e657281525060200191505060405180910390fd5b600260038111156115c457fe5b601060009054906101000a900460ff1660038111156115df57fe5b146115e957600080fd5b6003601060006101000a81548160ff0219169083600381111561160857fe5b02179055506000600160009054906101000a900473ffffffffffffffffffffffffffffffffffffffff1673ffffffffffffffffffffffffffffffffffffffff166370a08231306040518263ffffffff1660e01b8152600401808273ffffffffffffffffffffffffffffffffffffffff1673ffffffffffffffffffffffffffffffffffffffff16815260200191505060206040518083038186803b1580156116ae57600080fd5b505afa1580156116c2573d6000803e3d6000fd5b505050506040513d60208110156116d857600080fd5b8101908080519060200190929190505050905061170081600854612cbe90919063ffffffff16565b600881905550600160009054906101000a900473ffffffffffffffffffffffffffffffffffffffff1673ffffffffffffffffffffffffffffffffffffffff1663a9059cbb33836040518363ffffffff1660e01b8152600401808373ffffffffffffffffffffffffffffffffffffffff1673ffffffffffffffffffffffffffffffffffffffff16815260200182815260200192505050600060405180830381600087803b1580156117af57600080fd5b505af11580156117c3573d6000803e3d6000fd5b505050507fe8a97ea87e4388fa22d496b95a8ed5ced6717f49790318de2b928aaf37a021d860026003604051808360038111156117fc57fe5b60ff16815260200182600381111561181057fe5b60ff1681526020019250505060405180910390a150565b60095481565b60035481565b61183b611c93565b6118ad576040517f08c379a00000000000000000000000000000000000000000000000000000000081526004018080602001828103825260208152602001807f4f776e61626c653a2063616c6c6572206973206e6f7420746865206f776e657281525060200191505060405180910390fd5b600073ffffffffffffffffffffffffffffffffffffffff166000809054906101000a900473ffffffffffffffffffffffffffffffffffffffff1673ffffffffffffffffffffffffffffffffffffffff167f8be0079c531659141344cd1fd0a4f28419497f9722a3daafe3b4186f6b6457e060405160405180910390a360008060006101000a81548173ffffffffffffffffffffffffffffffffffffffff021916908373ffffffffffffffffffffffffffffffffffffffff160217905550565b600f602052816000526040600020818154811061198557fe5b906000526020600020016000915091509054906101000a900473ffffffffffffffffffffffffffffffffffffffff1681565b600a602052816000526040600020602052806000526040600020600091509150505481565b60055481565b600160038111156119ef57fe5b601060009054906101000a900460ff166003811115611a0a57fe5b14611a1457600080fd5b60036009541015611a2457600080fd5b6000600a60003373ffffffffffffffffffffffffffffffffffffffff1673ffffffffffffffffffffffffffffffffffffffff168152602001908152602001600020600060026009540381526020019081526020016000205411611a8657600080fd5b600160095401600e60003373ffffffffffffffffffffffffffffffffffffffff1673ffffffffffffffffffffffffffffffffffffffff16815260200190815260200160002081905550600f600060016009540181526020019081526020016000203390806001815401808255809150509060018203906000526020600020016000909192909190916101000a81548173ffffffffffffffffffffffffffffffffffffffff021916908373ffffffffffffffffffffffffffffffffffffffff160217905550507f0ca9d8cbc6ee7eeb50d76fc1e01230c6f34b390aac7eb15f6e42a49859b3502f33600160095401604051808373ffffffffffffffffffffffffffffffffffffffff1673ffffffffffffffffffffffffffffffffffffffff1681526020018281526020019250505060405180910390a1565b60025481565b60075481565b6060600f60006009548152602001908152602001600020805480602002602001604051908101604052809291908181526020018280548015611c6057602002820191906000526020600020905b8160009054906101000a900473ffffffffffffffffffffffffffffffffffffffff1673ffffffffffffffffffffffffffffffffffffffff1681526020019060010190808311611c16575b5050505050905090565b60008060009054906101000a900473ffffffffffffffffffffffffffffffffffffffff16905090565b60008060009054906101000a900473ffffffffffffffffffffffffffffffffffffffff1673ffffffffffffffffffffffffffffffffffffffff163373ffffffffffffffffffffffffffffffffffffffff1614905090565b611cf2611c93565b611d64576040517f08c379a00000000000000000000000000000000000000000000000000000000081526004018080602001828103825260208152602001807f4f776e61626c653a2063616c6c6572206973206e6f7420746865206f776e657281525060200191505060405180910390fd5b60016003811115611d7157fe5b601060009054906101000a900460ff166003811115611d8c57fe5b14611d9657600080fd5b600b6000600954815260200190815260200160002060010154421115611e7e57600b6000600954815260200190815260200160002060020154600b60006009548152602001908152602001600020600301541015611e74576002601060006101000a81548160ff02191690836003811115611e0d57fe5b02179055507fe8a97ea87e4388fa22d496b95a8ed5ced6717f49790318de2b928aaf37a021d86001600260405180836003811115611e4757fe5b60ff168152602001826003811115611e5b57fe5b60ff1681526020019250505060405180910390a1611e7d565b611e7c612fdd565b5b5b565b600160009054906101000a900473ffffffffffffffffffffffffffffffffffffffff1681565b60016003811115611eb357fe5b601060009054906101000a900460ff166003811115611ece57fe5b14611ed857600080fd5b80600160009054906101000a900473ffffffffffffffffffffffffffffffffffffffff1673ffffffffffffffffffffffffffffffffffffffff1663dd62ed3e33306040518363ffffffff1660e01b8152600401808373ffffffffffffffffffffffffffffffffffffffff1673ffffffffffffffffffffffffffffffffffffffff1681526020018273ffffffffffffffffffffffffffffffffffffffff1673ffffffffffffffffffffffffffffffffffffffff1681526020019250505060206040518083038186803b158015611fac57600080fd5b505afa158015611fc0573d6000803e3d6000fd5b505050506040513d6020811015611fd657600080fd5b81019080805190602001909291905050501015611ff257600080fd5b600160009054906101000a900473ffffffffffffffffffffffffffffffffffffffff1673ffffffffffffffffffffffffffffffffffffffff166323b872dd3330846040518463ffffffff1660e01b8152600401808473ffffffffffffffffffffffffffffffffffffffff1673ffffffffffffffffffffffffffffffffffffffff1681526020018373ffffffffffffffffffffffffffffffffffffffff1673ffffffffffffffffffffffffffffffffffffffff1681526020018281526020019350505050600060405180830381600087803b1580156120cf57600080fd5b505af11580156120e3573d6000803e3d6000fd5b505050506120f13382612d47565b50565b6120fc611c93565b61216e576040517f08c379a00000000000000000000000000000000000000000000000000000000081526004018080602001828103825260208152602001807f4f776e61626c653a2063616c6c6572206973206e6f7420746865206f776e657281525060200191505060405180910390fd5b6000600381111561217b57fe5b601060009054906101000a900460ff16600381111561219657fe5b146121a057600080fd5b6009600081548092919060010191905055506040518060a0016040528042815260200160025442018152602001600354815260200160008152602001600954815250600b6000600954815260200190815260200160002060008201518160000155602082015181600101556040820151816002015560608201518160030155608082015181600401559050506001601060006101000a81548160ff0219169083600381111561224b57fe5b02179055507fe8a97ea87e4388fa22d496b95a8ed5ced6717f49790318de2b928aaf37a021d8600060016040518083600381111561228557fe5b60ff16815260200182600381111561229957fe5b60ff1681526020019250505060405180910390a1565b601060009054906101000a900460ff1681565b600c6020528060005260406000206000915090505481565b600d60205281600052604060002081815481106122f357fe5b906000526020600020016000915091509054906101000a900473ffffffffffffffffffffffffffffffffffffffff1681565b60065481565b612333611c93565b6123a5576040517f08c379a00000000000000000000000000000000000000000000000000000000081526004018080602001828103825260208152602001807f4f776e61626c653a2063616c6c6572206973206e6f7420746865206f776e657281525060200191505060405180910390fd5b600160038111156123b257fe5b601060009054906101000a900460ff1660038111156123cd57fe5b146123d757600080fd5b6000600d6000600954815260200190815260200160002080549050116123fc57600080fd5b60008090505b81518110156124d657600082828151811061241957fe5b602002602001015190506000600c60008373ffffffffffffffffffffffffffffffffffffffff1673ffffffffffffffffffffffffffffffffffffffff16815260200190815260200160002054905060008114156124775750506124c9565b6000600c60008473ffffffffffffffffffffffffffffffffffffffff1673ffffffffffffffffffffffffffffffffffffffff168152602001908152602001600020819055506124c682826130de565b50505b8080600101915050612402565b507fc5f0220fa93282676472602c6f877cc94883dd6006bd930915d399b59171a0b381516040518082815260200191505060405180910390a150565b61251a611c93565b61258c576040517f08c379a00000000000000000000000000000000000000000000000000000000081526004018080602001828103825260208152602001807f4f776e61626c653a2063616c6c6572206973206e6f7420746865206f776e657281525060200191505060405180910390fd5b61259581613526565b50565b6125a0611c93565b612612576040517f08c379a00000000000000000000000000000000000000000000000000000000081526004018080602001828103825260208152602001807f4f776e61626c653a2063616c6c6572206973206e6f7420746865206f776e657281525060200191505060405180910390fd5b6002600381111561261f57fe5b601060009054906101000a900460ff16600381111561263a57fe5b1461264457600080fd5b600080600090505b8251811015612adc57600083828151811061266357fe5b602002602001015190506000600a60008373ffffffffffffffffffffffffffffffffffffffff1673ffffffffffffffffffffffffffffffffffffffff1681526020019081526020016000206000600954815260200190815260200160002054905060026009541015801561272c57506000600a60008473ffffffffffffffffffffffffffffffffffffffff1673ffffffffffffffffffffffffffffffffffffffff1681526020019081526020016000206000600160095403815260200190815260200160002054115b156128245760006127b060646127a2600754600a60008873ffffffffffffffffffffffffffffffffffffffff1673ffffffffffffffffffffffffffffffffffffffff1681526020019081526020016000206000600160095403815260200190815260200160002054612b2190919063ffffffff16565b612ba790919063ffffffff16565b90506127c58183612c3690919063ffffffff16565b91506000600a60008573ffffffffffffffffffffffffffffffffffffffff1673ffffffffffffffffffffffffffffffffffffffff1681526020019081526020016000206000600160095403815260200190815260200160002081905550505b60036009541015801561288c57506000600a60008473ffffffffffffffffffffffffffffffffffffffff1673ffffffffffffffffffffffffffffffffffffffff1681526020019081526020016000206000600260095403815260200190815260200160002054115b156129845760006129106064612902600754600a60008873ffffffffffffffffffffffffffffffffffffffff1673ffffffffffffffffffffffffffffffffffffffff1681526020019081526020016000206000600260095403815260200190815260200160002054612b2190919063ffffffff16565b612ba790919063ffffffff16565b90506129258183612c3690919063ffffffff16565b91506000600a60008573ffffffffffffffffffffffffffffffffffffffff1673ffffffffffffffffffffffffffffffffffffffff1681526020019081526020016000206000600260095403815260200190815260200160002081905550505b61299981600854612cbe90919063ffffffff16565b6008819055506000600a60008473ffffffffffffffffffffffffffffffffffffffff1673ffffffffffffffffffffffffffffffffffffffff1681526020019081526020016000206000600954815260200190815260200160002081905550612a0a8185612c3690919063ffffffff16565b9350600160009054906101000a900473ffffffffffffffffffffffffffffffffffffffff1673ffffffffffffffffffffffffffffffffffffffff1663a9059cbb83836040518363ffffffff1660e01b8152600401808373ffffffffffffffffffffffffffffffffffffffff1673ffffffffffffffffffffffffffffffffffffffff16815260200182815260200192505050600060405180830381600087803b158015612ab557600080fd5b505af1158015612ac9573d6000803e3d6000fd5b505050505050808060010191505061264c565b507fa1d8ffaa8a5a884e716fcce18e721ce0e0e3e5386bafbd1e63dc4bf30505cc1f825182604051808381526020018281526020019250505060405180910390a15050565b600080831415612b345760009050612ba1565b6000828402905082848281612b4557fe5b0414612b9c576040517f08c379a00000000000000000000000000000000000000000000000000000000081526004018080602001828103825260218152602001806137ef6021913960400191505060405180910390fd5b809150505b92915050565b6000808211612c1e576040517f08c379a000000000000000000000000000000000000000000000000000000000815260040180806020018281038252601a8152602001807f536166654d6174683a206469766973696f6e206279207a65726f00000000000081525060200191505060405180910390fd5b6000828481612c2957fe5b0490508091505092915050565b600080828401905083811015612cb4576040517f08c379a000000000000000000000000000000000000000000000000000000000815260040180806020018281038252601b8152602001807f536166654d6174683a206164646974696f6e206f766572666c6f77000000000081525060200191505060405180910390fd5b8091505092915050565b600082821115612d36576040517f08c379a000000000000000000000000000000000000000000000000000000000815260040180806020018281038252601e8152602001807f536166654d6174683a207375627472616374696f6e206f766572666c6f77000081525060200191505060405180910390fd5b600082840390508091505092915050565b612d5c81600854612c3690919063ffffffff16565b600881905550600854600160009054906101000a900473ffffffffffffffffffffffffffffffffffffffff1673ffffffffffffffffffffffffffffffffffffffff166370a08231306040518263ffffffff1660e01b8152600401808273ffffffffffffffffffffffffffffffffffffffff1673ffffffffffffffffffffffffffffffffffffffff16815260200191505060206040518083038186803b158015612e0457600080fd5b505afa158015612e18573d6000803e3d6000fd5b505050506040513d6020811015612e2e57600080fd5b81019080805190602001909291905050501015612e4a57600080fd5b7f88a5966d370b9919b20f3e2c13ff65706f196a4e32cc2c12bf57088f885258748282604051808373ffffffffffffffffffffffffffffffffffffffff1673ffffffffffffffffffffffffffffffffffffffff1681526020018281526020019250505060405180910390a1612ebd611c6a565b73ffffffffffffffffffffffffffffffffffffffff168273ffffffffffffffffffffffffffffffffffffffff161415612ef557612fd9565b600b6000600954815260200190815260200160002060010154421115612f7357600b6000600954815260200190815260200160002060020154600b60006009548152602001908152602001600020600301541015612f72576002601060006101000a81548160ff02191690836003811115612f6c57fe5b02179055505b5b612f7d82826130de565b600b600060095481526020019081526020016000206001015442118015612fca575060026003811115612fac57fe5b601060009054906101000a900460ff166003811115612fc757fe5b14155b15612fd857612fd7612fdd565b5b5b5050565b60096000815480929190600101919050555060006130346064613026600454600b6000600160095403815260200190815260200160002060020154612b2190919063ffffffff16565b612ba790919063ffffffff16565b90506040518060a001604052804281526020016002544201815260200161307f83600b6000600160095403815260200190815260200160002060020154612c3690919063ffffffff16565b815260200160008152602001600954815250600b60006009548152602001908152602001600020600082015181600001556020820151816001015560408201518160020155606082015181600301556080820151816004015590505050565b600b600060095481526020019081526020016000206002015461312282600b6000600954815260200190815260200160002060030154612c3690919063ffffffff16565b11801561315557506002600381111561313757fe5b601060009054906101000a900460ff16600381111561315257fe5b14155b15613376576000809050600b6000600954815260200190815260200160002060020154600b600060095481526020019081526020016000206003015410156131dd576131da600b6000600954815260200190815260200160002060030154600b6000600954815260200190815260200160002060020154612cbe90919063ffffffff16565b90505b61324281600a60008673ffffffffffffffffffffffffffffffffffffffff1673ffffffffffffffffffffffffffffffffffffffff1681526020019081526020016000206000600954815260200190815260200160002054612c3690919063ffffffff16565b600a60008573ffffffffffffffffffffffffffffffffffffffff1673ffffffffffffffffffffffffffffffffffffffff16815260200190815260200160002060006009548152602001908152602001600020819055506132c381600b6000600954815260200190815260200160002060030154612c3690919063ffffffff16565b600b60006009548152602001908152602001600020600301819055507f9e9d071824fd57d062ca63fd8b786d8da48a6807eebbcb2d83f9e8d21398e28c8382600954604051808473ffffffffffffffffffffffffffffffffffffffff1673ffffffffffffffffffffffffffffffffffffffff168152602001838152602001828152602001935050505060405180910390a16133708361336b8385612cbe90919063ffffffff16565b61366a565b50613522565b6000600d600060016009540181526020019081526020016000208054905011156133a9576133a4828261366a565b613521565b61340e81600a60008573ffffffffffffffffffffffffffffffffffffffff1673ffffffffffffffffffffffffffffffffffffffff1681526020019081526020016000206000600954815260200190815260200160002054612c3690919063ffffffff16565b600a60008473ffffffffffffffffffffffffffffffffffffffff1673ffffffffffffffffffffffffffffffffffffffff168152602001908152602001600020600060095481526020019081526020016000208190555061348f81600b6000600954815260200190815260200160002060030154612c3690919063ffffffff16565b600b60006009548152602001908152602001600020600301819055507f9e9d071824fd57d062ca63fd8b786d8da48a6807eebbcb2d83f9e8d21398e28c8282600954604051808473ffffffffffffffffffffffffffffffffffffffff1673ffffffffffffffffffffffffffffffffffffffff168152602001838152602001828152602001935050505060405180910390a15b5b5050565b600073ffffffffffffffffffffffffffffffffffffffff168173ffffffffffffffffffffffffffffffffffffffff1614156135ac576040517f08c379a00000000000000000000000000000000000000000000000000000000081526004018080602001828103825260268152602001806137c96026913960400191505060405180910390fd5b8073ffffffffffffffffffffffffffffffffffffffff166000809054906101000a900473ffffffffffffffffffffffffffffffffffffffff1673ffffffffffffffffffffffffffffffffffffffff167f8be0079c531659141344cd1fd0a4f28419497f9722a3daafe3b4186f6b6457e060405160405180910390a3806000806101000a81548173ffffffffffffffffffffffffffffffffffffffff021916908373ffffffffffffffffffffffffffffffffffffffff16021790555050565b6000600c60008473ffffffffffffffffffffffffffffffffffffffff1673ffffffffffffffffffffffffffffffffffffffff16815260200190815260200160002054141561372f57600d600060016009540181526020019081526020016000208290806001815401808255809150509060018203906000526020600020016000909192909190916101000a81548173ffffffffffffffffffffffffffffffffffffffff021916908373ffffffffffffffffffffffffffffffffffffffff160217905550505b61378181600c60008573ffffffffffffffffffffffffffffffffffffffff1673ffffffffffffffffffffffffffffffffffffffff16815260200190815260200160002054612c3690919063ffffffff16565b600c60008473ffffffffffffffffffffffffffffffffffffffff1673ffffffffffffffffffffffffffffffffffffffff16815260200190815260200160002081905550505056fe4f776e61626c653a206e6577206f776e657220697320746865207a65726f2061646472657373536166654d6174683a206d756c7469706c69636174696f6e206f766572666c6f77a165627a7a7230582086fbb1fc4f62df6b8adbc39f128ebfa2de96577fbb4bbf8d881c98ed7164d29d0029",
  "source": "\n// File: contracts/TetherToken.sol\n\npragma solidity >=0.4.21 <0.6.0;\n\ncontract TetherToken {\n    uint public _totalSupply;\n    function totalSupply() public view returns (uint);\n    function balanceOf(address who) public view returns (uint);\n    function transfer(address to, uint value) public;\n    function allowance(address owner, address spender) public view returns (uint);\n    function transferFrom(address from, address to, uint value) public;\n    function approve(address spender, uint value) public;\n}\n\n// File: contracts/Ownable.sol\n\npragma solidity >=0.4.21 <0.6.0;\n\n/**\n * @dev Contract module which provides a basic access control mechanism, where\n * there is an account (an owner) that can be granted exclusive access to\n * specific functions.\n *\n * This module is used through inheritance. It will make available the modifier\n * `onlyOwner`, which can be aplied to your functions to restrict their use to\n * the owner.\n */\ncontract Ownable {\n    address private _owner;\n\n    event OwnershipTransferred(address indexed previousOwner, address indexed newOwner);\n\n    /**\n     * @dev Initializes the contract setting the deployer as the initial owner.\n     */\n    constructor () internal {\n        _owner = msg.sender;\n        emit OwnershipTransferred(address(0), _owner);\n    }\n\n    /**\n     * @dev Returns the address of the current owner.\n     */\n    function owner() public view returns (address) {\n        return _owner;\n    }\n\n    /**\n     * @dev Throws if called by any account other than the owner.\n     */\n    modifier onlyOwner() {\n        require(isOwner(), \"Ownable: caller is not the owner\");\n        _;\n    }\n\n    /**\n     * @dev Returns true if the caller is the current owner.\n     */\n    function isOwner() public view returns (bool) {\n        return msg.sender == _owner;\n    }\n\n    /**\n     * @dev Leaves the contract without owner. It will not be possible to call\n     * `onlyOwner` functions anymore. Can only be called by the current owner.\n     *\n     * > Note: Renouncing ownership will leave the contract without an owner,\n     * thereby removing any functionality that is only available to the owner.\n     */\n    function renounceOwnership() public onlyOwner {\n        emit OwnershipTransferred(_owner, address(0));\n        _owner = address(0);\n    }\n\n    /**\n     * @dev Transfers ownership of the contract to a new account (`newOwner`).\n     * Can only be called by the current owner.\n     */\n    function transferOwnership(address newOwner) public onlyOwner {\n        _transferOwnership(newOwner);\n    }\n\n    /**\n     * @dev Transfers ownership of the contract to a new account (`newOwner`).\n     */\n    function _transferOwnership(address newOwner) internal {\n        require(newOwner != address(0), \"Ownable: new owner is the zero address\");\n        emit OwnershipTransferred(_owner, newOwner);\n        _owner = newOwner;\n    }\n}\n\n// File: contracts/SafeMath.sol\n\npragma solidity ^0.5.0;\n\n/**\n * @dev Wrappers over Solidity's arithmetic operations with added overflow\n * checks.\n *\n * Arithmetic operations in Solidity wrap on overflow. This can easily result\n * in bugs, because programmers usually assume that an overflow raises an\n * error, which is the standard behavior in high level programming languages.\n * `SafeMath` restores this intuition by reverting the transaction when an\n * operation overflows.\n *\n * Using this library instead of the unchecked operations eliminates an entire\n * class of bugs, so it's recommended to use it always.\n */\nlibrary SafeMath {\n    /**\n     * @dev Returns the addition of two unsigned integers, reverting on\n     * overflow.\n     *\n     * Counterpart to Solidity's `+` operator.\n     *\n     * Requirements:\n     * - Addition cannot overflow.\n     */\n    function add(uint256 a, uint256 b) internal pure returns (uint256) {\n        uint256 c = a + b;\n        require(c >= a, \"SafeMath: addition overflow\");\n\n        return c;\n    }\n\n    /**\n     * @dev Returns the subtraction of two unsigned integers, reverting on\n     * overflow (when the result is negative).\n     *\n     * Counterpart to Solidity's `-` operator.\n     *\n     * Requirements:\n     * - Subtraction cannot overflow.\n     */\n    function sub(uint256 a, uint256 b) internal pure returns (uint256) {\n        require(b <= a, \"SafeMath: subtraction overflow\");\n        uint256 c = a - b;\n\n        return c;\n    }\n\n    /**\n     * @dev Returns the multiplication of two unsigned integers, reverting on\n     * overflow.\n     *\n     * Counterpart to Solidity's `*` operator.\n     *\n     * Requirements:\n     * - Multiplication cannot overflow.\n     */\n    function mul(uint256 a, uint256 b) internal pure returns (uint256) {\n        // Gas optimization: this is cheaper than requiring 'a' not being zero, but the\n        // benefit is lost if 'b' is also tested.\n        // See: https://github.com/OpenZeppelin/openzeppelin-solidity/pull/522\n        if (a == 0) {\n            return 0;\n        }\n\n        uint256 c = a * b;\n        require(c / a == b, \"SafeMath: multiplication overflow\");\n\n        return c;\n    }\n\n    /**\n     * @dev Returns the integer division of two unsigned integers. Reverts on\n     * division by zero. The result is rounded towards zero.\n     *\n     * Counterpart to Solidity's `/` operator. Note: this function uses a\n     * `revert` opcode (which leaves remaining gas untouched) while Solidity\n     * uses an invalid opcode to revert (consuming all remaining gas).\n     *\n     * Requirements:\n     * - The divisor cannot be zero.\n     */\n    function div(uint256 a, uint256 b) internal pure returns (uint256) {\n        // Solidity only automatically asserts when dividing by 0\n        require(b > 0, \"SafeMath: division by zero\");\n        uint256 c = a / b;\n        // assert(a == b * c + a % b); // There is no case in which this doesn't hold\n\n        return c;\n    }\n\n    /**\n     * @dev Returns the remainder of dividing two unsigned integers. (unsigned integer modulo),\n     * Reverts when dividing by zero.\n     *\n     * Counterpart to Solidity's `%` operator. This function uses a `revert`\n     * opcode (which leaves remaining gas untouched) while Solidity uses an\n     * invalid opcode to revert (consuming all remaining gas).\n     *\n     * Requirements:\n     * - The divisor cannot be zero.\n     */\n    function mod(uint256 a, uint256 b) internal pure returns (uint256) {\n        require(b != 0, \"SafeMath: modulo by zero\");\n        return a % b;\n    }\n}\n\n// File: contracts/FomoInvest.sol\n\npragma solidity >=0.4.21 <0.6.0;\n\n\n\n\n/**\n * :\n *   \n *       1.\tUSDT\n *           \n *       2.\t\n *           ()10000USDT\n *\n *\t\t    7\n *\n *\t\t      30% 13000USDT\n *\n *\t\t       \n *\n *            +14%  \n *\n *           \n *\n *           \n *            100%\n *\n *             65%\n *            65%\n *\n *           GAS\n *           \n */\ncontract FomoInvest is Ownable {\n    using SafeMath for uint256;\n\n    enum State { Init, Active, Refunding, Closed }\n\n    TetherToken public usdtToken;\n    uint256 public roundInterval = 7 days;\n    uint256 public defaultCap = 10000000000; // 10000 USDT, USDT  6 \n    uint256 public capIncrease = 30; // \n    uint256 public interestRate = 14; // \n    uint256 public withdrawFee = 2; // \n    uint256 public refundRate = 65; // \n    uint256 public totalAmount; // \n    uint256 public roundIndex = 0; // \n    mapping(address => mapping(uint256 => uint256)) public investRecords;  //   ->  -> \n    mapping(uint256 => Round) public roundInfo; //  index -> \n    mapping(address => uint256) public waitingQueue; //   -> \n    mapping(uint256 => address[]) public waitingUsers; //   -> \n    mapping(address => uint256) public reDepositRound; //  -> \n    mapping(uint256 => address[]) public reDepositUsers; //  -> \n\n    State public state; // \n\n    struct Round {\n        uint256 startTime; // \n        uint256 endTime;  // \n        uint256 capInUsdtWei; // \n        uint256 investAmountInUsdtWei;  // \n        uint256 index;  // \n    }\n\n    event StateChanged(State from, State to);\n    event Received(address sender, uint256 amount);\n    event Invested(address investor, uint256 amount, uint256 roundIndex);\n    event RefundDone(uint256 size, uint256 amount);\n    event WithdrawDone(uint256 size, uint256 amount);\n    event MarkReInvested(address investor, uint256 roundIndex);\n    event ReInvested(address investor, uint256 roundIndex, uint256 amount);\n    event ReInvestDone(uint256 size);\n    event WaitingQueueDone(uint256 size);\n\n    constructor(address tetherToken) public {\n      usdtToken = TetherToken(tetherToken);\n      state = State.Init;\n    }\n\n    function start() onlyOwner public {\n      require(state == State.Init);\n      roundIndex++;\n      roundInfo[roundIndex] = Round(now, now + roundInterval, defaultCap, 0, roundIndex);\n      state = State.Active;\n      emit StateChanged(State.Init, State.Active);\n    }\n\n    /**\n     * \n     *  approve \n     */\n    function deposit(uint256 usdtWeiAmount) public {\n        require(state == State.Active);\n        require(usdtToken.allowance(msg.sender, address(this)) >= usdtWeiAmount);\n\n        usdtToken.transferFrom(msg.sender, address(this), usdtWeiAmount);\n\n        _internalDeposit(msg.sender, usdtWeiAmount);\n    }\n\n    /**\n     * \n     * \n     */\n    function adminDeposit(address investor, uint256 usdtWeiAmount) public onlyOwner {\n        require(state == State.Active);\n        _internalDeposit(investor, usdtWeiAmount);\n    }\n\n    /**\n     * \n     */\n    function batchRefund(address[] memory investors) onlyOwner public {\n        require(state == State.Refunding);\n\n        uint256 batchRefundAmount;\n\n        for (uint256 i = 0; i < investors.length; i++) {\n            address currentInvestor = investors[i];\n            uint256 totalRefundAmount = investRecords[currentInvestor][roundIndex];\n            if (roundIndex >= 2 && investRecords[currentInvestor][roundIndex - 1] > 0) {\n                uint256 refundAmount = investRecords[currentInvestor][roundIndex - 1].mul(refundRate).div(100);\n                totalRefundAmount = totalRefundAmount.add(refundAmount);\n                investRecords[currentInvestor][roundIndex - 1] = 0;\n            }\n\n            if (roundIndex >= 3 && investRecords[currentInvestor][roundIndex - 2] > 0) {\n                uint256 refundAmount = investRecords[currentInvestor][roundIndex - 2].mul(refundRate).div(100);\n                totalRefundAmount = totalRefundAmount.add(refundAmount);\n                investRecords[currentInvestor][roundIndex - 2] = 0;\n            }\n\n            totalAmount = totalAmount.sub(totalRefundAmount);\n            investRecords[currentInvestor][roundIndex] = 0;\n\n            batchRefundAmount = batchRefundAmount.add(totalRefundAmount);\n            usdtToken.transfer(currentInvestor, totalRefundAmount);\n        }\n\n        emit RefundDone(investors.length, batchRefundAmount);\n    }\n\n    /**\n     * \n     * \n     * \n     *  ( +  * interestRate) * (1 - withdrawFee)\n     */\n    function batchWithdraw(address[] memory investors) onlyOwner public {\n        require(state == State.Active);\n        require(roundIndex >= 4);\n\n        uint256 batchWithdrawAmount;\n\n        for (uint256 i = 0; i < investors.length; i++) {\n            address currentInvestor = investors[i];\n            uint256 principle = investRecords[investors[i]][roundIndex - 3];\n            if (principle == 0) continue;\n            uint256 interest = principle.mul(interestRate).div(100);\n            uint256 withdrawAmount = principle.add(interest);\n            uint256 withdrawFeeAmount = withdrawAmount.mul(withdrawFee).div(100);\n            uint256 pureWithdraw = withdrawAmount.sub(withdrawFeeAmount);\n\n            totalAmount = totalAmount.sub(pureWithdraw);\n            investRecords[investors[i]][roundIndex - 3] = 0;\n            usdtToken.transfer(currentInvestor, pureWithdraw);\n            batchWithdrawAmount = batchWithdrawAmount.add(pureWithdraw);\n        }\n\n        emit WithdrawDone(investors.length, batchWithdrawAmount);\n    }\n\n    /**\n     * \n     * \n     * \n     */\n    function reDeposit() public {\n        require(state == State.Active);\n        require(roundIndex >= 3);\n        require(investRecords[msg.sender][roundIndex - 2] > 0);\n\n        reDepositRound[msg.sender] = roundIndex + 1;\n        reDepositUsers[roundIndex + 1].push(msg.sender);\n\n        emit MarkReInvested(msg.sender, roundIndex + 1);\n    }\n\n    /**\n     * \n     */\n    function adminReDeposit(address[] memory investors) onlyOwner public {\n        require(state == State.Active);\n        require(roundIndex >= 4);\n        require(reDepositUsers[roundIndex].length > 0);\n\n        for (uint256 i = 0; i < investors.length; i++) {\n            address currentInvestor = investors[i];\n            if (reDepositRound[currentInvestor] == 0) continue;\n            uint256 principle = investRecords[currentInvestor][roundIndex - 3];\n            uint256 interest = principle.mul(interestRate).div(100);\n            uint256 amountToInvest = principle.add(interest);\n\n            reDepositRound[currentInvestor] = 0;\n            investRecords[currentInvestor][roundIndex] = investRecords[currentInvestor][roundIndex].add(amountToInvest);\n            roundInfo[roundIndex].investAmountInUsdtWei = roundInfo[roundIndex].investAmountInUsdtWei.add(amountToInvest);\n            investRecords[currentInvestor][roundIndex - 3] = 0;\n\n            emit ReInvested(currentInvestor, roundIndex, amountToInvest);\n        }\n\n        emit ReInvestDone(investors.length);\n\n    }\n\n    /**\n     * \n     */\n    function adminDepositForWaitingUsers(address[] memory investors) onlyOwner public {\n        require(state == State.Active);\n        require(waitingUsers[roundIndex].length > 0);\n\n        for (uint256 i = 0; i < investors.length; i++) {\n            address currentInvestor = investors[i];\n            uint256 waitingAmount = waitingQueue[currentInvestor];\n            if (waitingAmount == 0) continue;\n            waitingQueue[currentInvestor] = 0;\n            _internalDepositWithoutTransfer(currentInvestor, waitingAmount);\n        }\n\n        emit WaitingQueueDone(investors.length);\n    }\n\n    /**\n     * \n     */\n    function adminStateCheck() onlyOwner public {\n        require(state == State.Active);\n        if (now > roundInfo[roundIndex].endTime) {\n            if (roundInfo[roundIndex].investAmountInUsdtWei < roundInfo[roundIndex].capInUsdtWei) {\n                state = State.Refunding;\n\n                emit StateChanged(State.Active, State.Refunding);\n            } else {\n                _startNewRound();\n            }\n        }\n    }\n\n    function adminClose() onlyOwner public {\n        require(state == State.Refunding);\n\n        state = State.Closed;\n        uint256 balance = usdtToken.balanceOf(address(this));\n        totalAmount = totalAmount.sub(balance);\n        usdtToken.transfer(msg.sender, balance);\n\n        emit StateChanged(State.Refunding, State.Closed);\n    }\n\n    function getWaitingUsers() public view returns (address[] memory)  {\n        return waitingUsers[roundIndex];\n    }\n\n    function getReDepositUsers() public view returns (address[] memory) {\n        return reDepositUsers[roundIndex];\n    }\n\n    function kill() onlyOwner public {\n        require(state == State.Closed);\n\n        selfdestruct(msg.sender);\n    }\n\n\n    function _internalDeposit(address investor, uint256 usdtWeiAmount) private {\n        totalAmount = totalAmount.add(usdtWeiAmount);\n\n        require(usdtToken.balanceOf(address(this)) >= totalAmount);\n\n        emit Received(investor, usdtWeiAmount);\n\n        // owner \n        if (investor == owner()) return;\n\n        //  Refunding, \n        if (now > roundInfo[roundIndex].endTime) {\n            if (roundInfo[roundIndex].investAmountInUsdtWei < roundInfo[roundIndex].capInUsdtWei) {\n                state = State.Refunding;\n            }\n        }\n\n        _internalDepositWithoutTransfer(investor, usdtWeiAmount);\n\n        if (now > roundInfo[roundIndex].endTime && state != State.Refunding) {\n            _startNewRound();\n        }\n    }\n\n    function _internalDepositWithoutTransfer(address investor, uint256 usdtWeiAmount) private {\n        if (roundInfo[roundIndex].investAmountInUsdtWei.add(usdtWeiAmount) > roundInfo[roundIndex].capInUsdtWei && state != State.Refunding) {\n            uint256 investAmount = 0;\n\n            if (roundInfo[roundIndex].investAmountInUsdtWei < roundInfo[roundIndex].capInUsdtWei) {\n                investAmount = roundInfo[roundIndex].capInUsdtWei.sub(roundInfo[roundIndex].investAmountInUsdtWei);\n            }\n\n            investRecords[investor][roundIndex] = investRecords[investor][roundIndex].add(investAmount);\n            roundInfo[roundIndex].investAmountInUsdtWei = roundInfo[roundIndex].investAmountInUsdtWei.add(investAmount);\n            emit Invested(investor, investAmount, roundIndex);\n\n            _addToWaitingQueue(investor, usdtWeiAmount.sub(investAmount));\n        } else {\n            if (waitingUsers[roundIndex + 1].length > 0) {\n                _addToWaitingQueue(investor, usdtWeiAmount);\n            } else {\n                investRecords[investor][roundIndex] = investRecords[investor][roundIndex].add(usdtWeiAmount);\n                roundInfo[roundIndex].investAmountInUsdtWei = roundInfo[roundIndex].investAmountInUsdtWei.add(usdtWeiAmount);\n                emit Invested(investor, usdtWeiAmount, roundIndex);\n            }\n        }\n    }\n\n    function _addToWaitingQueue(address investor, uint256 usdtWeiAmount) private {\n        if (waitingQueue[investor] == 0) {\n            waitingUsers[roundIndex + 1].push(investor);\n        }\n        waitingQueue[investor] = waitingQueue[investor].add(usdtWeiAmount);\n    }\n\n    function _startNewRound() private {\n      roundIndex++;\n      uint256 capToIncrease = roundInfo[roundIndex - 1].capInUsdtWei.mul(capIncrease).div(100);\n      roundInfo[roundIndex] = Round(now, now + roundInterval, roundInfo[roundIndex - 1].capInUsdtWei.add(capToIncrease), 0, roundIndex);\n    }\n\n}\n",
  "sourcePath": "/Users/ashton/blockchain/eth/smartcontract/FomoInvest/contracts/FomoInvestFlatVersion.sol",
  "compiler": {
    "name": "solc",
    "version": "0.5.8+commit.23d335f2.Emscripten.clang"
  },
  "schemaVersion": "3.0.11",
  "updatedAt": "2019-08-09T22:40:58.490Z",
  "devdoc": {
    "methods": {
      "isOwner()": {
        "details": "Returns true if the caller is the current owner."
      },
      "owner()": {
        "details": "Returns the address of the current owner."
      },
      "renounceOwnership()": {
        "details": "Leaves the contract without owner. It will not be possible to call `onlyOwner` functions anymore. Can only be called by the current owner.     * > Note: Renouncing ownership will leave the contract without an owner, thereby removing any functionality that is only available to the owner."
      },
      "transferOwnership(address)": {
        "details": "Transfers ownership of the contract to a new account (`newOwner`). Can only be called by the current owner."
      }
    }
  },
  "userdoc": {
    "methods": {
      "adminDeposit(address,uint256)": {
        "notice": " "
      },
      "adminDepositForWaitingUsers(address[])": {
        "notice": ""
      },
      "adminReDeposit(address[])": {
        "notice": ""
      },
      "adminStateCheck()": {
        "notice": ""
      },
      "batchRefund(address[])": {
        "notice": ""
      },
      "batchWithdraw(address[])": {
        "notice": "    ( +  * interestRate) * (1 - withdrawFee)"
      },
      "deposit(uint256)": {
        "notice": "  approve "
      },
      "reDeposit()": {
        "notice": "  "
      }
    },
    "notice": ":        1.\tUSDT                2.\t          ()10000USDT *\t\t    7 *\t\t      30% 13000USDT *\t\t        *            +14%   *            *                      100% *             65%           65% *           GAS          "
  }
}